:020000040800F2
:1000000000C00020311E000801050008030500089B
:1000100005050008070500080905000800000000A4
:100020000000000000000000000000000B050008B8
:100030000D050008000000000F050008110500086C
:10004000791E0008791E0008791E0008791E000834
:10005000791E0008791E0008791E0008791E000824
:10006000791E0008791E0008791E0008791E000814
:10007000791E0008791E0008791E0008791E000804
:10008000791E0008791E0008791E0008791E0008F4
:10009000791E0008791E0008791E0008791E0008E4
:1000A000791E0008791E0008791E0008791E0008D4
:1000B0001905000829050008791E0008791E0008A6
:1000C000791E0008791E0008791E0008791E0008B4
:1000D000791E0008791E0008791E0008791E0008A4
:1000E000791E0008791E0008791E0008791E000894
:1000F000791E0008791E0008791E0008791E000884
:10010000791E0008791E0008791E0008791E000873
:10011000791E0008791E0008791E0008791E000863
:10012000791E0008791E0008791E0008791E000853
:1001300000000000000000000000000000000000BF
:1001400000000000000000000000000000000000AF
:10015000000000000000000000000000000000009F
:10016000000000000000000000000000000000008F
:10017000000000000000000000000000000000007F
:10018000000000000000000000000000000000006F
:10019000000000000000000000000000000000005F
:1001A000000000000000000000000000000000004F
:1001B000000000000000000000000000000000003F
:1001C000000000000000000000000000000000002F
:1001D000000000000000000000000000000000001F
:0401E0005FF8E0F1F3
:1001E40010B5054C237833B9044B13B10448AFF36D
:1001F40000800123237010BD0C00002000000000CB
:10020400D41E000808B5034B1BB103490348AFF3E0
:10021400008008BD0000000010000020D41E00086B
:100224002DE9F04188B000240494059406940794C1
:100234002C4B9A6942F010029A619A6902F01002FA
:100244000092009A9A6942F020029A619A6902F037
:1002540020020192019A9A6942F004029A619A6911
:1002640002F004020292029A9A6942F008029A6128
:100274009B6903F008030393039BDFF8788022460D
:100284004FF40051404600F017FE174D224602215C
:10029400284600F011FE4FF40053049301270597FC
:1002A40006940226079604A9404600F0E9FC302390
:1002B40004930E4B0593069404A90D4800F0E0FC4A
:1002C40004970594069404A9284600F0D9FC0496E2
:1002D40005970694079604A9284600F0D1FC08B0B7
:1002E400BDE8F08100100240000C01400000111034
:1002F400000801400010014008B50B480B4B036097
:100304000B4B436000238360C3604FF4804202615F
:1003140043618361C361036200F0D4FD00B908BD89
:1003240000F07CF8FBE700BF2800002000540040E8
:10033400A086010008B50B480B4B03600B4B4360D0
:1003440000238360C3604FF4804202614361836190
:10035400C361036200F0B6FD00B908BD00F05EF8A9
:10036400FBE700BF7C00002000580040A08601008D
:1003740010B588B00023049305930693079303688C
:10038400224A934204D0224A93421FD008B010BD9F
:10039400204CA36943F00803A361A36903F0080395
:1003A4000093009BC0230493122305930323079314
:1003B40004A9194800F064FCE36943F40013E36101
:1003C400E36903F400130193019BDFE7114CA36974
:1003D40043F00803A361A36903F008030293029B9B
:1003E4004FF440630493122305930323079304A952
:1003F400094800F045FCE36943F48003E361E369E1
:1004040003F480030393039BC0E700BF0054004040
:100414000058004000100240000C014072B6FEE794
:1004240000B591B0002309930B930C9301930293AD
:10043400039304930593012106914FF480320792AC
:1004440008930A9102230D930E924FF4E0130F9335
:1004540006A800F02BFE80B90F230193022102911C
:10046400002303934FF480620492059301A801F0E2
:100474005BF820B911B05DF804FBFFF7CFFFFFF77D
:10048400CDFF08B500F06EFBFFF7CAFFFFF7C8FE0B
:10049400FFF732FFFFF74EFF00F04CFA00F064FA6A
:1004A40000F07CFA00F098F900F046F800F076F8D5
:1004B40000F0F6F9FEE7000082B00E4B9A6942F0B4
:1004C40001029A619A6902F001020092009ADA69C3
:1004D40042F08052DA61DB6903F080530193019B9F
:1004E400054A536823F0E06343F00073536002B09D
:1004F400704700BF0010024000000140FEE7FEE725
:10050400FEE7FEE7FEE770477047704708B500F066
:100514003BFB08BD08B5024801F07BF908BD00BFEC
:10052400A801002008B5024801F073F908BD00BF16
:10053400180100207047000000B58DB0002301931E
:10054400029315484FF080420260436083604FF687
:10055400FF72C260036183610122039204930592D6
:1005640006930793089309920A930B9303A901F046
:1005740085FA50B900230193029301A9064801F0BA
:1005840075FB28B90DB05DF804FBFFF747FFF1E7F1
:10059400FFF744FFF6E700BFA801002000B58DB0C7
:1005A4000023019302931448144A02604360836059
:1005B4004FF6FF72C26003618361012203920493C8
:1005C400059206930793089309920A930B9303A940
:1005D40001F054FA50B900230193029301A906488B
:1005E40001F044FB28B90DB05DF804FBFFF716FFDA
:1005F400F1E7FFF713FFF6E71801002000040040BD
:1006040082B003680E4A934204D00E4A93420CD03F
:1006140002B070470C4B9A6942F400629A619B697C
:1006240003F400630093009BF2E7074BDA6942F09E
:100634000402DA61DB6903F004030193019BE7E739
:10064400002C0140000800400010024010B58AB0A0
:10065400002306930793089309930368B3F1804F2B
:1006640004D0354A934242D00AB010BD03F5043396
:10067400DA6942F00102DA61DA6902F001020192F8
:10068400019A9A6942F004029A619A6902F004029A
:100694000292029A9A6942F008029A619B6903F0F5
:1006A40008030393039B4FF4004306930024079429
:1006B400089406A9214800F0E3FA08230693079456
:1006C400089406A91E4800F0DBFA1E4A536823F476
:1006D400407343F0E06343F4807353602246214641
:1006E4001C2000F075FA1C2000F0A6FABCE7164B9B
:1006F400DA6942F00202DA61DA6902F00202049273
:10070400049A9A6942F004029A619B6903F0040313
:100714000593059BC023069300240794089406A917
:10072400064800F0ADFA224621461D2000F050FA9A
:100734001D2000F081FA97E7000400400008014002
:10074400000C0140000001400010024000B587B0D9
:10075400002302930393049305930368194A934275
:1007640005D0194A934217D007B05DF804FB174B24
:100774009A6942F004029A619B6903F004030093AE
:10078400009B4FF41063029302230393059302A981
:100794000F4800F075FAE7E70C4B9A6942F008023B
:1007A4009A619B6903F008030193019B4FF4407322
:1007B400029302230393059302A9064800F060FA0A
:1007C400D2E700BF002C01400008004000100240A6
:1007D40000080140000C014010B592B000241094B0
:1007E400119409940A940B940C940D940E940F9400
:1007F4002022214601A801F063FB2748274B036010
:10080400446084604FF6FF73C36004614461846193
:1008140001F008F9002830D100231093119310A996
:100824001D4801F023FA00282AD1602309930022ED
:100834000A920B920C920D920E920F9209A91648ED
:1008440001F0ACF9F8B90C2209A9134801F0A6F992
:10085400E0B90023019302930393049305934FF4A7
:1008640000520692089301A90B4801F03BFA80B9A3
:100874000948FFF76BFF12B010BDFFF7CFFDCBE7C0
:10088400FFF7CCFDD1E7FFF7C9FDDCE7FFF7C6FDB5
:10089400DFE7FFF7C3FDEBE760010020002C014018
:1008A40000B58BB00023089309930193029303933B
:1008B40004930593069307931C481D4A0260436002
:1008C40083604FF6FF72C2600361836101F0AAF88E
:1008D400F8B900230893099308A9144801F0C6F94C
:1008E400D0B9602301930023029303930593082254
:1008F40001A90E4801F052F988B90C2201A90B484C
:1009040001F04CF970B90948FFF720FF0BB05DF80E
:1009140004FBFFF783FDDCE7FFF780FDE1E7FFF76A
:100924007DFDEAE7FFF77AFDEDE700BFD000002088
:100934000008004008B50A480A4B03604FF4E1334D
:10094400436000238360C36003610C2242618361BE
:10095400C36101F03BFA00B908BDFFF75FFDFBE797
:10096400340200200038014008B50A480A4B0360ED
:100974004FF4E133436000238360C36003610C22BE
:1009840042618361C36101F021FA00B908BDFFF738
:1009940045FDFBE7780200200044004008B50A4802
:1009A4000A4B03604FF4E133436000238360C36068
:1009B40003610C2242618361C36101F007FA00B94B
:1009C40008BDFFF72BFDFBE7F001002000480040C5
:1009D40010B58AB00023069307930893099303681C
:1009E400474A934207D0474A93422ED0464A9342FD
:1009F40053D00AB010BD454B9A6942F480429A61C3
:100A04009A6902F480420092009A9A6942F00402C0
:100A14009A619B6903F004030193019B4FF40073F3
:100A240006930223079303230993394C06A920460E
:100A340000F026F94FF4806306930023079308938C
:100A440006A9204600F01CF9D3E7304BDA6942F4DA
:100A54000032DA61DA6902F400320292029A9A6987
:100A640042F004029A619B6903F004030393039B1D
:100A7400042306930223079303230993244C06A912
:100A8400204600F0FDF808230693002307930893FB
:100A940006A9204600F0F4F8ABE71C4BDA6942F4EF
:100AA4008022DA61DA6902F480220492049A9A6953
:100AB40042F010029A619B6903F010030593059BB1
:100AC4004FF4806306930223079303230993114C85
:100AD40006A9204600F0D4F84FF4006306930023DF
:100AE4000793089306A9204600F0CAF80A4A5368F7
:100AF40023F0300343F0E06343F01003536078E7DE
:100B0400003801400044004000480040001002400A
:100B140000080140001001400000014010B50446E7
:100B24000E4B18784FF47A73B3FBF0F30C4A106849
:100B3400B0FBF3F000F08EF868B90F2C01D9012056
:100B44000AE0002221464FF0FF3000F041F8034B49
:100B54005C60002000E0012010BD00BF0400002004
:100B64000000002008B5074A136843F0100313601F
:100B7400032000F01BF80020FFF7D0FFFFF79CFCD8
:100B8400002008BD00200240034A1168034B1B7873
:100B94000B441360704700BFBC0200200400002017
:100BA400014B1868704700BFBC020020074AD36895
:100BB40023F4E0631B041B0C000200F4E060034315
:100BC40043F0BF6343F40033D360704700ED00E0AB
:100BD40030B4174BDB68C3F30223C3F10704042CBE
:100BE40028BF04241D1D062D18D9033B4FF0FF35E3
:100BF40005FA04F421EA0401994005FA03F322EA10
:100C04000303194300280BDB0901C9B200F160405A
:100C140000F5614080F8001330BC70470023E5E71D
:100C240000F00F000901C9B2024B1954F4E700BFE8
:100C340000ED00E014ED00E0002807DB00F01F02E7
:100C4400400901239340024A42F82030704700BF14
:100C540000E100E00138B0F1807F0AD2064B586011
:100C6400064AF02182F823100020986007221A60B7
:100C740070470120704700BF10E000E000ED00E085
:100C8400F0B482B000252C46ABE0854FBB4210D0B7
:100C940007D9844FBB420CD007F58037BB4208D03C
:100CA40013E0A7F58017BB4203D007F57027BB42BA
:100CB40007D18B68002B60D0012B59D042610825E5
:100CC40003E0A7F58017BB42F3D0FF2E57D8844624
:100CD400FF2E57D8A200DCF800300F27974023EAF4
:100CE400070305FA02F21343CCF800304B6813F003
:100CF400805F75D06C4B9A6942F001029A619B69DE
:100D040003F001030193019BA208971C674B53F85E
:100D140027C004F003039F000F23BB402CEA030CFD
:100D2400634B984234D003F58063984200F094807A
:100D340003F58063984200F0918003F58063984244
:100D440000F08E8003F58063984200F08B8003F5F9
:100D5400806398421AD006231BE0CD68B5E7CD68BE
:100D64000435B2E7CD680835AFE7CD680C35ACE79C
:100D740002610825A9E70025A7E70425A5E700F1F6
:100D8400040CA5E7A4F108029200A4E7052300E0FF
:100D94000023BB4043EA0C030232444F47F822309D
:100DA4004B6813F4803F5FD0424A136833431360A7
:100DB4004B6813F4003F5DD03E4A5368334353609D
:100DC4004B6813F4801F5BD03A4A936833439360B3
:100DD4004B6813F4001F59D0364AD3681E43D660BB
:100DE40001340B6833FA04F256D00122A24003EA1C
:100DF400020632EA0303F3D14B68122B3FF645AFE8
:100E0400122B3FF662AF01A757F823F0B70C000886
:100E14005F0D0008690D00087B0D0008CF0C000869
:100E2400CF0C0008CF0C0008CF0C0008CF0C000832
:100E3400CF0C0008CF0C0008CF0C0008CF0C000822
:100E4400CF0C0008CF0C0008CF0C0008CF0C000812
:100E5400630D00086F0D000801239AE7022398E749
:100E6400032396E7042394E7124A136823EA06034C
:100E740013609DE70F4A536823EA060353609FE714
:100E84000C4A936823EA06039360A1E7094AD368EE
:100E940023EA0606D660A3E702B0F0BC704700BFA1
:100EA4000000221000003110001002400000014038
:100EB40000080140000401400AB1016170470904BF
:100EC40001617047002800F0CC80F8B5044690F822
:100ED4003D30002B77D0242384F83D3022681368FA
:100EE40023F0010313602268136843F40043136082
:100EF4002268136823F40043136000F0D1FB626896
:100F04005A4B9A4264D85A4B98428CBF002301230F
:100F1400002B40F0A880574DA5FB0035AF0C266888
:100F2400716821F03F0141EA9541716021680B6AC3
:100F340023F03F0365684D4A95424FD87A1C13430A
:100F44000B622568E96921F44F4121F0FF016368D0
:100F5400464A93424CD801385B00B0FBF3F00130B1
:100F640040F6FC73184278D0C0F30B030B43EB61DB
:100F740021680B6823F0C003E269206A024313432B
:100F84000B6021688B6823F4034323F0FF03226979
:100F9400E068024313438B602168CB6823F0FF03AE
:100FA4006269A06902431343CB602268136843F06B
:100FB4000103136000202064202384F83D30206363
:100FC40084F83E00F8BD80F83C30FFF7D1F982E7A1
:100FD400294B98428CBF0023012399E74FF4967262
:100FE40002FB07F2254DA5FB025292090132A6E746
:100FF400A268BAB9461E03EB4307B6FBF7F60136FF
:10100400C6F30B06B6FA86F6760946BBC2B9421E8B
:1010140003EB4303B2FBF3F20132C2F30B0242F4DB
:101024000043A3E7461E03EB830707EB8707B6FBE2
:10103400F7F60136C6F30B06B6FA86F67609E4E748
:10104400421E03EB830303EB8303B2FBF3F201328F
:10105400C2F30B0242F4404388E7042386E70123EA
:1010640084E7012070470120ACE700BFA08601009F
:101074007F841E0083DE1B43FF083D00D34D6210B6
:1010840082B0084B1B68084AA2FB03235B0A00FBDF
:1010940003F3019300BF019B5A1E0192002BF9D167
:1010A40002B0704700000020D34D6210002800F009
:1010B400F18170B582B00446036813F0010F2CD09F
:1010C400AA4B5B6803F00C03042B1DD0A74B5B6891
:1010D40003F00C03082B12D06368B3F5803F41D0B2
:1010E400002B55D103F1804303F504331A6822F42D
:1010F40080321A601A6822F480221A6037E09B4B0F
:101104005B6813F4803FE7D0984B1B6813F4003FEF
:1011140003D06368002B00F0BF81236813F0020F33
:1011240075D0924B5B6813F00C0F5FD08F4B5B68EC
:1011340003F00C03082B54D02369002B00F08980A2
:101144008B4B01221A60FFF72BFD0546874B1B686A
:1011540013F0020F74D1FFF723FD401B0228F5D9C9
:1011640003209EE1814A136843F48033136063686B
:1011740043B3FFF715FD05467C4B1B6813F4003F92
:10118400CBD1FFF70DFD401B6428F5D9032088E17E
:10119400B3F5A02F09D0754B1A6822F480321A6077
:1011A4001A6822F480221A60E1E703F18043A3F570
:1011B4003C331A6842F480221A601A6842F480327E
:1011C4001A60D4E7FFF7ECFC0546684B1B6813F480
:1011D400003FA2D0FFF7E4FC401B6428F5D90320AC
:1011E4005FE1624B5B6813F4803FA5D15F4B1B68E2
:1011F40013F0020F03D02369012B40F04F815B4AA7
:10120400136823F0F803616943EAC1031360236898
:1012140013F0080F32D0A369002B45D0554B01229F
:101224001A60FFF7BDFC0546504B5B6A13F0020FD2
:1012340021D1FFF7B5FC401B0228F5D9032030E18A
:101244004A4A136823F0F803616943EAC10313604F
:10125400DDE7474B00221A60FFF7A2FC0546434B2B
:101264001B6813F0020FD2D0FFF79AFC401B022830
:10127400F5D9032015E10120FFF702FF236813F0DD
:10128400040F00F09780394BDB6913F0805F1DD1A8
:10129400364BDA6942F08052DA61DB6903F080533D
:1012A4000193019B012512E0324B00221A60FFF7E3
:1012B40077FC05462D4B5B6A13F0020FDED0FFF777
:1012C4006FFC401B0228F5D90320EAE000252A4BD5
:1012D4001B6813F4807F11D0E368012B22D0002B0C
:1012E40038D103F1804303F504331A6A22F0010272
:1012F4001A621A6A22F004021A6218E01E4A13687B
:1013040043F480731360FFF74BFC06461A4B1B68CB
:1013140013F4807FE0D1FFF743FC801B6428F5D9E8
:101324000320BEE0114A136A43F001031362E36829
:1013340073B3FFF735FC06460C4B1B6A13F0020F20
:1013440037D1FFF72DFC801B41F288339842F3D943
:101354000320A6E0052B11D0044B1A6A22F00102E7
:101364001A621A6A22F004021A62E0E700100240CC
:101374000000424280044242007000404D4B1A6A11
:1013840042F004021A621A6A42F001021A62CEE7BB
:10139400FFF706FC0646474B1B6A13F0020F08D002
:1013A400FFF7FEFB801B41F288339842F3D90320F8
:1013B40077E0E5B9E369002B72D03E4A526802F047
:1013C4000C02082A56D0022B17D03B4B00221A607D
:1013D400FFF7E6FB0446374B1B6813F0007F47D04A
:1013E400FFF7DEFB001B0228F5D9032059E0314A40
:1013F400D36923F08053D361DCE72F4B00221A60BA
:10140400FFF7CEFB05462B4B1B6813F0007F06D07D
:10141400FFF7C6FB401B0228F5D9032041E0236AED
:10142400B3F5803F1AD023494B6823F47413226A1E
:10143400606A024313434B601F4B01221A60FFF79B
:10144400AFFB04461B4B1B6813F0007F0ED1FFF764
:10145400A7FB001B0228F5D9032022E0154A536894
:1014640023F40033A1680B435360DCE7002018E049
:10147400002016E0012B16D00E4B5B6803F480317C
:10148400226A914211D103F47013626A93420ED11D
:10149400002006E001207047012002E0012000E066
:1014A400002002B070BD0120FBE70120F9E7012014
:1014B400F7E700BF001002406000424286B0164BBE
:1014C4000FCB0DF1180C0CE90F0040F20123ADF81D
:1014D4000430124B5B6803F00C02082A02D0104857
:1014E40006B07047C3F38342624412F8102C13F41D
:1014F400803F0CD0094B5B68C3F34043634413F84B
:10150400143C074800FB02F0B0FBF3F0E8E70548A1
:1015140000FB02F0E4E700BF041F000800100240D3
:1015240000127A0000093D00002800F0A08070B588
:101534000D460446524B1B6803F007038B420BD243
:101544004F4A136823F007030B431360136803F037
:1015540007038B4240F08D80236813F0020F17D0ED
:1015640013F0040F04D0474A536843F4E063536014
:10157400236813F0080F04D0424A536843F46053BD
:101584005360404A536823F0F003A1680B4353604F
:10159400236813F0010F31D06368012B20D0022B94
:1015A40025D0384A126812F0020F64D035494A68CF
:1015B40022F0030213434B60FFF7F2FA0646314B65
:1015C4005B6803F00C036268B3EB820F16D0FFF77D
:1015D400E7FA801B41F288339842F0D9032045E0B2
:1015E400284A126812F4003FE0D101203EE0254A67
:1015F400126812F0007FD9D1012037E0204B1B681C
:1016040003F00703AB420AD91D4A136823F007030A
:101614002B431360136803F00703AB422DD12368F7
:1016240013F0040F06D0174A536823F4E063E1680B
:101634000B435360236813F0080F07D0114A536813
:1016440023F46053216943EAC1035360FFF736FF73
:101654000C4B5B68C3F303130B4AD35CD8400B4BAE
:1016640018600B4B1868FFF759FA002070BD012071
:1016740070470120FAE70120F8E70120F6E700BFF0
:101684000020024000100240EC1E00080000002070
:1016940008000020014B1868704700BF00000020BC
:1016A40008B5FFF7F7FF044B5B68C3F30223034A53
:1016B400D35CD84008BD00BF00100240FC1E0008E7
:1016C40008B5FFF7E7FF044B5B68C3F3C223034A83
:1016D400D35CD84008BD00BF00100240FC1E0008C7
:1016E40030B4036A23F001030362056A4268846923
:1016F40024F073040B681C4325F002058B682B430C
:10170400104DA84203D005F50065A84205D123F089
:101714000803CD682B4323F004030A4DA84203D0E9
:1017240005F50065A84205D122F440724D691543C0
:101734008A692A43426084614A684263036230BC16
:10174400704700BF002C014030B4036A23F4807357
:101754000362036A4268C46924F073040D682C436D
:1017640023F400738D6843EA0523124DA84203D085
:1017740005F50065A84206D123F40063CD6843EA69
:10178400052323F480630B4DA84203D005F50065BF
:10179400A84207D122F440524D6942EA05128D69EC
:1017A40042EA05124260C4614A68C263036230BC03
:1017B400704700BF002C014030B4036A23F4805307
:1017C4000362036A4468C26922F4E6420D6842EA8D
:1017D400052223F400538D6843EA0533094DA842DA
:1017E40003D005F50065A84204D124F480444D6972
:1017F40044EA85144460C2614A680264036230BCEE
:10180400704700BF002C0140704770477047704715
:10181400704710B5044603681A6912F0020F11D01C
:10182400DA6812F0020F0DD06FF002021A61012380
:10183400037703689B6913F0030F70D0FFF7E6FF8B
:101844000023237723681A6912F0040F12D0DA6890
:1018540012F0040F0ED06FF004021A6102232377F2
:1018640023689B6913F4407F5FD02046FFF7CEFFC7
:101874000023237723681A6912F0080F12D0DA685C
:1018840012F0080F0ED06FF008021A6104232377B8
:101894002368DB6913F0030F4ED02046FFF7B6FF31
:1018A4000023237723681A6912F0100F12D0DA6824
:1018B40012F0100F0ED06FF010021A610823237774
:1018C4002368DB6913F4407F3DD02046FFF79EFF79
:1018D4000023237723681A6912F0010F03D0DA6812
:1018E40012F0010F36D123681A6912F0800F03D069
:1018F400DA6812F0800F34D123681A6912F0400FAD
:1019040003D0DA6812F0400F32D123681A6912F05A
:10191400200F03D0DA6812F0200F30D110BDFFF78A
:1019240074FF2046FFF773FF8AE72046FFF76DFF39
:101934002046FFF76CFF9BE72046FFF766FF204633
:10194400FFF765FFACE72046FFF75FFF2046FFF790
:101954005EFFBDE76FF001021A612046FFF754FFF6
:10196400C1E76FF080021A61204600F0E5F9C3E791
:101974006FF040021A612046FFF74AFFC5E76FF097
:1019840020021A61204600F0D6F9C7E70368244A0A
:10199400904212D002F5006290420ED0B0F1804F16
:1019A4000BD0A2F59832904207D002F580629042A3
:1019B40003D002F58062904203D123F070034A6899
:1019C4001343174A904212D002F5006290420ED09F
:1019D400B0F1804F0BD0A2F59832904207D002F5B7
:1019E4008062904203D002F58062904203D123F4D6
:1019F4004073CA68134323F080034A6913430360A6
:101A04008B68C3620B688362054B984203D003F56D
:101A14000063984201D10B6903630123436170475A
:101A2400002C014040B310B5044690F83D30F3B1AA
:101A3400022384F83D30214651F8040BFFF7A6FF3A
:101A4400012384F8463084F83E3084F83F3084F82B
:101A5400403084F8413084F8423084F8433084F8CC
:101A6400443084F8453084F83D30002010BD80F8BF
:101A74003C30FEF7C5FDDBE701207047002853D05A
:101A8400F8B50D46044690F83D30002B47D00223AC
:101A940084F83D302268936823F4804323F00703DD
:101AA4009360214651F8040BFFF770FF21688A68A0
:101AB4008E690F6A2868104326F4407626F00306E0
:101AC400AA68AB6942EA0323334323F47C4323F03B
:101AD400FC03EE68EA6946EA02261E432A6A1303F7
:101AE4002A6943EA0213334327F022076A686D69BF
:101AF40042EA05123A43886021688B6123681A62BE
:101B0400012384F8463084F83E3084F83F3084F86A
:101B1400423084F8433084F83D300020F8BD80F82A
:101B24003C30FEF793FDB2E70120704730B4036AFE
:101B340023F010030362036A4468826922F4E642D4
:101B44000D6842EA052223F020038D6843EA051359
:101B5400114DA84203D005F50065A84206D123F033
:101B64008003CD6843EA051323F040030A4DA842DD
:101B740003D005F50065A84207D124F440644D69FB
:101B840044EA85048D6944EA8504446082614A68B4
:101B94008263036230BC7047002C014038B590F872
:101BA4003C30012B60D004460D46012380F83C30C4
:101BB4000C2A1AD8DFE802F0071919191D19191986
:101BC4003119191944000068FFF78AFD22689369E6
:101BD40043F0080393612268936923F0040393613B
:101BE4002268936929690B439361002084F83C00BF
:101BF40038BD0068FFF79AFF2268936943F40063D5
:101C040093612268936923F48063936122689369E2
:101C1400296943EA01239361E7E70068FFF794FD2C
:101C24002268D36943F00803D3612268D36923F09F
:101C34000403D3612268D36929690B43D361D4E7D0
:101C44000068FFF7B9FD2268D36943F40063D361E8
:101C54002268D36923F48063D3612268D369296934
:101C640043EA0123D361C0E70220C1E790F83C3086
:101C7400012B33D030B4012380F83C30022380F8A8
:101C84003D3003685C689D6824F070040A68224350
:101C94005A600368124A934212D002F500629342DA
:101CA4000ED0B3F1804F0BD0A2F59832934207D0F7
:101CB40002F58062934203D002F58062934204D11C
:101CC40025F080054A6815439D60012380F83D3066
:101CD400002380F83C30184630BC7047022070471F
:101CE400002C014090F83C30012B22D0012380F8D5
:101CF4003C30CB6823F440738A68134323F4806335
:101D04004A68134323F400630A68134323F480539B
:101D14000A69134323F400534A69134323F48043A9
:101D2400CA69134302685364002380F83C301846A0
:101D340070470220704770477047000010B5044692
:101D44000268136923F44053C1680B431361836829
:101D54000269134342691A430168CB6823F4B05300
:101D640023F00C031343CB600268536923F44073DC
:101D740081690B4353610268124B9A421FD0FFF7EB
:101D84008FFC00EB800303EB830362689200B3FBD8
:101D9400F2F20D48A0FB02314909642303FB11232D
:101DA4001B013233A0FB03235B0903F0F00202EBB7
:101DB400011203F00F03216813448B6010BDFFF779
:101DC4007FFCDEE7003801401F85EB5158B310B5A6
:101DD400044690F83D300BB3242384F83D30226848
:101DE400D36823F40053D3602046FFF7A7FF22688B
:101DF400136923F4904313612268536923F02A037F
:101E040053612268D36843F40053D36000202064F4
:101E1400202384F83D3084F83E3010BD80F83C30F7
:101E2400FEF7D6FDD8E70120704700000C480D49A5
:101E34000D4A002302E0D458C4500433C4188C4221
:101E4400F9D30A4A0A4C002301E013600432A24287
:101E5400FBD3FEF76FFB00F00FF8FEF712FB7047A1
:101E6400000000200C000020201F00080C000020AF
:101E7400C0020020FEE7000070B500260C4D0D4C9A
:101E8400641BA410A64209D100F022F800260A4DD2
:101E94000A4C641BA410A64205D170BD55F8043B3E
:101EA40098470136EEE755F8043B98470136F2E7C8
:101EB400181F0008181F0008181F00081C1F00081E
:101EC40003460244934200D1704703F8011BF9E72B
:101ED400F8B500BFF8BC08BC9E467047F8B500BF13
:081EE400F8BC08BC9E467047E3
:101EEC0000000000000000000102030406070809BE
:101EFC0000000000010203040203040506070809A0
:0C1F0C000A0B0C0D0E0F1010000000005E
:041F180009020008B2
:041F1C00E5010008D3
:0C1F20000024F40001000000100000008C
:0400000508001E31A0
:00000001FF
